:100000000C94D4000C94FC000C94FC000C94FC00A8
:100010000C94FC000C94FC000C94FC000C94FC0070
:100020000C94FC000C94FC000C94410A0C949C026F
:100030000C94FC000C94FC000C94FC000C94FC0050
:100040000C94FC000C94FC000C94FC000C94FC0040
:100050000C94FC000C94FC000C94FC000C94F7092C
:100060000C94FC000C94FC000C94FC000C94FC0020
:100070000C94FC000C94FC000C94FC000C94FC0010
:100080000C94FC000C94FC000C94FC000C94FC0000
:100090000C94EF060C94FC000C94FC000C94FC00F7
:1000A0000C94FC000C94FC000C94FC00150918093D
:1000B00007090B090F093909390939091C092009F0
:1000C00024092A092E0939093409080B0002020201
:1000D00001000904000001020200000524001001D3
:1000E0000524010101042402060524060001070578
:1000F000810310004009040100020A000000070506
:1001000002024000000705830240000004030904C6
:1001100012010002EF02014041234180000101026F
:10012000030141726475696E6F204C4C430041724B
:100130006475696E6F2059756E000000000025001F
:1001400028002B002E0031000404040404030405DD
:100150000202020204030202020206060606060664
:10016000040402020204040408020110408040104A
:1001700020408040800802040180402010020110CD
:100180008010204040200000000200090F00000302
:100190000401000C0000000000000000000000004E
:1001A000000000000000D40B11241FBECFEFDAE0E6
:1001B000DEBFCDBF11E0A0E0B1E0E4E0F8E102C0B5
:1001C00005900D92AE3CB107D9F723E0AEECB1E05B
:1001D00001C01D92A530B207E1F710E0C4EDD0E0F8
:1001E00004C02197FE010E94F50BC33DD107C9F75A
:1001F0000E94B30A0C94000C0C9400004091D001B2
:100200005091D1012091CE013091CF014217530777
:10021000B4F49091E8009570E1F39091E80092FDBC
:1002200019C08093F1008091D0019091D101019685
:100230008F739927892B19F48EEF8093E8008091B2
:10024000D0019091D10101969093D1018093D0017A
:1002500081E0089580E00895DF92EF92FF920F937E
:100260001F93CF93DF93D82EF92EE42E062F10E0A4
:10027000C8010196880F0E94FE0083E00E94FE00E4
:10028000CD2DDF2D0C0F1D1FC017D10789F0E7FE04
:1002900003C0FE01849101C088810E94FE00F82EF7
:1002A00080E00E94FE008F2121968111EDCF01C0D8
:1002B00081E0DF91CF911F910F91FF90EF90DF9040
:1002C0000895DF92EF92FF920F931F93CF93DF93E6
:1002D000D82E8A017B01E40EF51EEB01CE15DF0559
:1002E00071F0D7FE03C0FE01849101C088810E9495
:1002F000FE0021968111F2CF8FEF9FEF01C0C80160
:10030000DF91CF911F910F91FF90EF90DF900895B3
:10031000615030F02091F100FC0120830196F8CF6C
:10032000289884E680938A020895CF92DF92EF9214
:10033000FF920F931F93CF93DF936C017A018B0190
:10034000C0E0D0E0CE15DF0581F0D8016D918D01C0
:10035000D601ED91FC910190F081E02DC601099547
:10036000892B11F02196EECF7E01C701DF91CF914D
:100370001F910F91FF90EF90DF90CF900895CF9352
:10038000DF931F92CDB7DEB76983DC01ED91FC915D
:100390000280F381E02D41E050E0BE016F5F7F4FAE
:1003A00009950F90DF91CF91089583E08093E90044
:1003B0008091F200882319F08AE38093E800089581
:1003C0000F931F93CF93DF931F92CDB7DEB782E0D9
:1003D000898342E450E06AEC70E080E80E946101A9
:1003E0000E94A909DC0112960D911C911397011529
:1003F000110589F0D801ED91FC910280F381E02D87
:10040000BE016F5F7F4FC801099597FD04C0F801D9
:1004100000851185ECCF89810F90DF91CF911F91DD
:100420000F9108958F929F92AF92BF92CF92DF92D9
:10043000EF92FF920F931F93CF93DF936C017B0199
:100440008A0180910B01882309F45CC080918B02A2
:10045000882309F457C08091880280FF05C08091ED
:10046000E00082608093E000E801B12C8AEFA82EC2
:1004700093E0892E2AE3922E209711F4BB20D9F124
:100480000E94980981110AC0AA94AA20D9F161E0BA
:1004900070E080E090E00E94BD09EECF282F30E0B0
:1004A000C217D3070CF48C2F9FB7F8948092E90001
:1004B0002091E80025FF1DC0282F30E0C21BD30B80
:1004C000F701815020F041914093F100FACFE20E04
:1004D000F31EBB2019F09092E8000AC08091E8005A
:1004E00085FD07C09092E800BB24B394209709F0E3
:1004F000B12C9FBFC1CF5D9884E68093890210160E
:10050000110644F081E090E0F6019383828380E05D
:1005100090E001C0C801DF91CF911F910F91FF9032
:10052000EF90DF90CF90BF90AF909F908F90089505
:100530000E94980990E008951F920F920FB60F92B3
:100540001124CF92DF92EF92FF920F931F932F937C
:100550003F934F935F936F937F938F939F93AF934B
:10056000BF93EF93FF93CF93DF93CDB7DEB76C9735
:10057000DEBFCDBF1092E9008091E80083FFFBC190
:1005800068E0CE0145960E94880182EF8093E800E2
:100590008D8987FF05C09091E80090FFFCCF03C0D4
:1005A0009EEF9093E800982F907609F0C6C09E8940
:1005B0004F89588D2F89F88C91110CC0803829F4FF
:1005C0008091D3018093F10002C01092F10010924B
:1005D000F10045C1913051F4811141C141305105C3
:1005E00009F03DC18091D3018D7F0BC0933061F440
:1005F000811135C14130510509F031C18091D301DC
:1006000082608093D3012BC1953049F48091E8003A
:1006100080FFFCCF822F80688093E30020C196305A
:1006200009F05EC00B8D1C8D22E01092E900109243
:10063000D1011092D001F21232C01092CF0110926B
:10064000CE010E94E00199E0BE016F5F7F4FDB01A8
:10065000E92F1D92EA95E9F79983FA8291E09E834A
:1006600090EA98879AEF99872091D0013091D10133
:10067000275F3F4F3C832B838D831092E9001092BC
:10068000D1011092D0011093CF010093CE0149E027
:1006900050E080E00E9461010E94E001E0C0109300
:1006A000CF010093CE010E94A909DC0112960D91A1
:1006B0001C9113970115110509F4BBC0D801ED91E8
:1006C000FC910480F581E02DBE016B5E7F4FC80177
:1006D0000995009709F0C7C0F80100851185EACF98
:1006E000973009F445C1983021F481E08093F100FE
:1006F000B6C0993009F0B3C0837009F039C1EDE09C
:10070000F1E081E031E096E32081211109C08EE71C
:100710008093EA001092EA008F8980938B029FC039
:100720008093E9003093EB0021912093EC009093AB
:10073000ED008F5F873041F7EACF8B8D9C8D109253
:10074000E9001092D1011092D0019093CF018093D3
:10075000CE01898D811153C08E899D89913A49F4CA
:10076000813209F005C147E050E064E071E080E0CB
:10077000BBC0913209F0FCC0833269F48F89988D37
:10078000A0E0B0E08093000190930101A0930201EA
:10079000B093030164C0803269F48091E80082FF65
:1007A000FCCF67E084E091E00E9488018BEF8093AA
:1007B000E80055C0823209F052C08F8980930B0146
:1007C000EEEFFFE7859194918B3F9C4D19F0E0E0AF
:1007D000F8E002C0EEEFFAE080910401909105018B
:1007E000A0910601B0910701803B9440A105B1059D
:1007F00009F09EC080910B0180FF79C099C00E94D2
:10080000A909FC01028113810115110509F4B0C089
:10081000D801ED91FC910190F081E02DBE016B5E5D
:100820007F4FC801099581111AC0F8010085118513
:10083000EBCFF1E0FF1609F44EC0F3E0FF1298C0D1
:100840008F89882309F44AC0823089F440E86BE03C
:100850008EE291E00E942C01882309F489C08EEF7A
:100860008093E80088C018161906CCF381C0813047
:1008700029F440E86BE082E291E0ECCF833009F0AC
:1008800077C00E94A909DC011296ED90FC901397A5
:100890008E010F5F1F4F6801E114F10479F0D70159
:1008A000ED91FC910680F781E02DB801C701099513
:1008B000080F111DF701E084F184EECFD8011C92DE
:1008C000F60101900020E9F73197BF016C197D090D
:1008D00040E0C601BFCF60E171E002C06CE071E0B2
:1008E000FB01449150E080E80E946101B8CFEE3FE7
:1008F0002AE0F20751F0808191818737A7E79A07B4
:1009000021F09093FF0A8093FE0A87E797E791838F
:100910008083809160008093D2019BE088E10FB6D4
:10092000F894A895809360000FBE9093600097CFD5
:10093000808191818737974709F091CFA895809161
:1009400060008861809360008091D2018093600094
:10095000EE3FBAE0FB0739F08091FE0A9091FF0A62
:10096000918380837CCF1092FF0A1092FE0A77CF8A
:1009700081E28093EB006C960FB6F894DEBF0FBE59
:10098000CDBFDF91CF91FF91EF91BF91AF919F913B
:100990008F917F916F915F914F913F912F911F9117
:1009A0000F91FF90EF90DF90CF900F900FBE0F90C0
:1009B0001F901895FC018485958597FD0BC09FB706
:1009C000F89482E08093E9008091F2009FBF90E06C
:1009D000019608959FB7F89482E08093E900809192
:1009E000F2009FBF90E0089585ED8093BC00809158
:1009F000BC0084FDFCCF10926202089540913C023D
:100A0000262F30E0240F311D21323105DCF42091F6
:100A100062022430C9F4FC0180E090E0861758F4AB
:100A200030913C022191DC01A65EBD4FA30FB11DA8
:100A30002C930196F3CF80913C02680F60933C02A7
:100A400080E0089581E0089582E008950895089572
:100A50000895E091F5018091F401E81730F4F0E099
:100A6000EA50FE4F808190E008958FEF9FEF089548
:100A70009091F5018091F401981750F4E92FF0E07E
:100A8000EA50FE4F208130E09F5F9093F50102C055
:100A90002FEF3FEFC90108958091F40190E020917C
:100AA000F501821B91090895CF92DF92EF92FF9298
:100AB0000F931F93CF93DF937C01CB018A01209189
:100AC0001902222389F0EB016B01C40ED51ECC154F
:100AD000DD0569F06991D701ED91FC910190F081FC
:100AE000E02DC7010995F3CF642F0E94FE04C801D1
:100AF000DF91CF911F910F91FF90EF90DF90CF90FA
:100B00000895CF93DF931F92CDB7DEB7698320910D
:100B100019022223D1F020911602203240F021E068
:100B200030E0FC013383228380E090E015C08091A7
:100B30001702E82FF0E0EC52FE4F998190838F5F0F
:100B4000809317028093160205C061E0CE010196E2
:100B50000E94FE0481E090E00F90DF91CF91089514
:100B600030911602313208F04AC080916202811140
:100B7000FCCF9091180222E02093620260936402FD
:100B80002FEF209361021092860230938502E4EDEC
:100B9000F1E0A5E6B2E020E0321721F041914D935B
:100BA0002F5FFACF1092870220918702990F922B24
:100BB0009093870290916302913061F410926302E6
:100BC000909187029093BB009091BC0093FDF8CF69
:100BD00095EC01C095EE9093BC009091620292302A
:100BE000E1F3909161029F3F79F080916102803240
:100BF00041F080916102803331F084E005C081E0F2
:100C000003C082E001C083E0109217021092160226
:100C1000109219020895089580E090E008950F93CE
:100C20001F93CF93DF931F92CDB7DEB78C01FC01EA
:100C30008485958597FF0EC0CE0101960E946A09B2
:100C4000019719F4898190E002C08FEF9FEFF801BE
:100C500095878487F801848595850F90DF91CF91E2
:100C60001F910F910895CF93DF931F92CDB7DEB7F9
:100C7000FC018485958597FD05C02FEF3FEF3587F3
:100C800024870BC0CE0101960E946A09019719F4CE
:100C9000898190E002C08FEF9FEF0F90DF91CF919D
:100CA00008950E94FB0BCF93DF93EC0181E08093CA
:100CB00019028AE580931802109217021092160208
:100CC00088819981DC01ED91FC910190F081E02D0A
:100CD000099561E0888199810E94B0058091620246
:100CE0008111FCCF81E080936202809364029FEFC8
:100CF000909361021092860210928502809387027F
:100D000080918702846B8093870280916302813097
:100D100061F410926302809187028093BB008091FE
:100D2000BC0083FDF8CF85EC01C085EE8093BC004C
:100D3000809162028130E1F380918602811103C0CB
:100D40009091860201C091E0A5E6B2E0E6EFF1E005
:100D500080E0891721F02D9121938F5FFACF1092B7
:100D6000F5018093F40188819981DC01ED91FC917A
:100D70000284F385E02D0995DF91CF9108951092BB
:100D8000F5011092F40110921702109216021092BF
:100D9000620281E0809364021092630282E00E940A
:100DA000EB0883E00E94EB08E9EBF0E080818E7FA6
:100DB000808380818D7F808388E48093B80085E480
:100DC0008093BC0086E295E090933B0280933A02C8
:100DD00087E295E090933F0280933E0208951F9230
:100DE0000F920FB60F9211242F933F934F935F935F
:100DF0006F937F938F939F93AF93BF93EF93FF93E3
:100E00008091B900887F803609F49CC068F58832EB
:100E100009F45BC090F4803109F454C038F488239D
:100E200009F4F6C0883009F44DC0F6C0883109F4E1
:100E30004CC0803209F45DC0EFC0803409F468C052
:100E400048F4803309F455C0883309F0E5C0809335
:100E50006102D8C0803509F44FC0883509F45DC0FF
:100E6000883409F0D9C0D6C0883909F4C7C0A8F4BD
:100E7000883709F467C038F4883609F463C08037CE
:100E800009F460C0C9C0883809F4B8C0803909F4D1
:100E90005FC0803809F0C0C05BC0803B09F486C0E9
:100EA00038F4803A09F466C0883A09F47FC0B4C0C7
:100EB000803C09F4A7C0883C09F4A4C0883B09F42D
:100EC0008AC0AAC08091870210C09091860280914A
:100ED0008502981770F5E091860281E08E0F80936D
:100EE0008602F0E0EB59FD4F80818093BB0085ECDA
:100EF00086C0809361028EC0E091860281E08E0FF1
:100F0000809386028091BB00F0E0EB59FD4F808317
:100F100090918602809185026EC0E091860281E008
:100F20008E0F809386028091BB00F0E0EB59FD4F5D
:100F300080838091640281116DC081E0809363029F
:100F400084EA61C083E08093620210926002CFCF96
:100F500080916002803208F051C0E091600281E02F
:100F60008E0F809360028091BB00F0E0E05CFD4F4B
:100F70008083BDCF85EC8093BC001092620280918B
:100F80006002803230F4E0916002F0E0E05CFD4FFE
:100F900010826091600270E0E0913E02F0913F02A9
:100FA00080E492E009951092600236C084E080935C
:100FB000620210923D0210923C02E0913A02F091DE
:100FC0003B02099580913C02811105C081E080932C
:100FD0003C0210921A02E0913D0281E08E0F809354
:100FE0003D02F0E0E65EFD4F80818093BB00909172
:100FF0003D0280913C02981708F479CF85E88093F0
:10100000BC000AC085EC8093BC001092620204C050
:10101000109261020E94F404FF91EF91BF91AF9191
:101020009F918F917F916F915F914F913F912F9100
:101030000F900FBE0F901F9018951F93CF93DF93C3
:10104000EC01142F81E0809319028AE58093180245
:10105000109217021092160288819981DC01ED919D
:10106000FC910190F081E02D099588819981DC0146
:10107000ED91FC910190F081E02D612F099561E0E7
:1010800088819981DF91CF911F910C94B005CF9306
:10109000DF93EC016AE10E945306482F40686AE141
:1010A000CE01DF91CF910C941D08462F63E00C9484
:1010B0001D08CF93DF93EC01888199810E94BF06C0
:1010C00060E0CE010E94530640E061E0CE010E9444
:1010D0001D0840E062E0CE010E941D0841E064E08E
:1010E000CE010E941D0840E065E0CE010E941D086F
:1010F00040E06DE0CE010E941D0840E06EE0CE01B0
:101100000E941D0840E06FE0CE010E941D0840E0F3
:1011100060E1CE010E941D0844E663E1CE010E9419
:101120001D086AE1CE010E945306482F4F776AE1FD
:10113000CE010E941D086DE1CE010E945306482F8A
:1011400040626DE1CE010E941D0881E0DF91CF91E8
:10115000089591E09093190290E7909318021092ED
:1011600017021092160261E070E001C0660F8A95C6
:10117000EAF78CED92E00E94810561E08CED92E04F
:101180000E94B0058CED92E00C94BF063FB7F89436
:101190008091F5029091F602A091F702B091F802C9
:1011A00026B5A89B05C02F3F19F00196A11DB11DC2
:1011B0003FBFBA2FA92F982F8827820F911DA11DFD
:1011C000B11DBC01CD0142E0660F771F881F991F3A
:1011D0004A95D1F7089590E0FC01EA57FE4F4491FB
:1011E000FC01E959FE4F2491FC01E85BFE4F84911C
:1011F000882309F44CC04423E1F150E0FA0131970F
:10120000EF30F105B0F5EA5AFF4F0C94F50B9091D1
:1012100080009F7707C0909180009F7D03C09091D0
:101220008000977F9093800024C094B59F7702C080
:1012300094B59F7D94BD1DC0909190009F7707C08D
:10124000909190009F7D03C090919000977F909324
:1012500090000FC09091C0009F7703C09091C00094
:101260009F7D9093C00005C09091C200977F90939E
:10127000C200E82FF0E0EE0FFF1FE65CFE4FA591E5
:10128000B4918FB7F894EC91E22BEC938FBF089553
:10129000CF93DF93009779F0FC0101900020E9F7EC
:1012A0003197AF01481B590BBC018CE892E00E94BA
:1012B0001202EC0102C0C0E0D0E042E050E06BEC72
:1012C00071E08CE892E00E9412028C0F9D1FDF916A
:1012D000CF91089520918B02211103C08FEF9FEFD2
:1012E00008955FB7F89422E02093E9002091F2007E
:1012F00030E01216130614F421E030E0422FFC0116
:1013000084E6415038F0289880938A029091F10049
:101310009193F7CF2115310521F08091F2008823B8
:1013200019F05FBFC90108958BE68093E800F9CFFB
:101330002FB7F89483E08093E9009091E800892F1B
:10134000807295FF04C09091F20080E4891B2FBF4A
:1013500008958091FD0281110DC082E08093F90211
:1013600084E08093FA021092FC021092FB0281E06A
:101370008093FD0289EF92E008958F929F92AF9241
:10138000BF92CF92DF92EF92FF926B017C010E949D
:10139000C6084B015C01C114D104E104F104F1F071
:1013A0000E94C608DC01CB0188199909AA09BB096A
:1013B000883E9340A105B10570F321E0C21AD1081F
:1013C000E108F10888EE880E83E0981EA11CB11C8C
:1013D000C114D104E104F10419F7DDCFFF90EF90BF
:1013E000DF90CF90BF90AF909F908F9008951F9205
:1013F0000F920FB60F9211242F933F938F939F93C9
:10140000AF93BF938091F1029091F202A091F30209
:10141000B091F4023091F00223E0230F2D3720F435
:101420000196A11DB11D05C026E8230F0296A11D3E
:10143000B11D2093F0028093F1029093F202A093E9
:10144000F302B093F4028091F5029091F602A0911C
:10145000F702B091F8020196A11DB11D8093F5022B
:101460009093F602A093F702B093F802BF91AF9168
:101470009F918F913F912F910F900FBE0F901F90D2
:1014800018951F920F920FB60F9211248F939F936E
:101490008091E1009091E100937F9093E10083FFC0
:1014A0000FC01092E90091E09093EB001092EC00D5
:1014B00092E39093ED0010928B0298E09093F000ED
:1014C00082FF20C093E09093E9009091F20099236D
:1014D00019F09AE39093E80090918902992339F0EA
:1014E00090918902915090938902992389F190916A
:1014F0008A02992339F090918A02915090938A023E
:10150000992341F184FF10C08091E2008E7E8160BA
:101510008093E2008091E1008F7E8093E1008091D2
:1015200088028E7E806111C080FF16C08091E2002B
:101530008E7E80618093E2008091E1008E7E8093B8
:10154000E100809188028E7E81608093880204C0D1
:101550005D9ACDCF289AD6CF9F918F910F900FBED5
:101560000F901F901895789484B5826084BD84B5DF
:10157000816084BD85B5826085BD85B5816085BD8E
:1015800080916E00816080936E0010928100809146
:1015900081008260809381008091810081608093CE
:1015A0008100809180008160809380008091910013
:1015B000826080939100809191008160809391007E
:1015C000809190008160809390008091C100846040
:1015D0008093C1008091C10082608093C10080919E
:1015E000C10081608093C1008091C30081608093BD
:1015F000C3008091C00082608093C0008091C200CF
:1016000081608093C20080917A00846080937A0028
:1016100080917A00826080937A0080917A00816064
:1016200080937A0080917A00806880937A0010928B
:101630008B021092D301109288028091D7008160B2
:101640008093D70080EA8093D80089B5806189BDF6
:1016500089B5826089BD09B400FEFDCF61E070E00C
:1016600080E090E00E94BD098091D8008F7C80616D
:101670008093D8008091E000807F8093E00080918B
:10168000E1008E7E8093E1008DE08093E200559A28
:10169000209A8FEF9FEF909399028093980287E3AF
:1016A00091E00E94480988E491E00E94480984E69C
:1016B00091E00E94480984E791E00E9448098DEC7E
:1016C00091E00E944809CCEDD2E0D093EF02C093A4
:1016D000EE028EEE92E00E945908D093ED02C09384
:1016E000EC028CEE92E00E945908D093EB02C0937A
:1016F000EA028AEE92E00E945908D093E902C09370
:10170000E80288EE92E00E94590880E991E00E9488
:1017100048098CE892E00E94DA0418161906CCF702
:101720008CE892E00E943306C197B9F462E08EEE35
:1017300092E00E94550862E08CEE92E00E9455080B
:1017400062E08AEE92E00E94550862E088EE92E044
:101750000E94550881EB91E0DACF66E08EEE92E0D0
:101760000E94550866E08CEE92E00E94550866E003
:101770008AEE92E00E94550866E088EE92E00E94B0
:1017800055088EEE92E00E9447088CEE92E00E948F
:1017900047088AEE92E00E94470888EE92E00E9495
:1017A00047088EEB91E0B3CFECE8F2E013821282AF
:1017B00088EE93E0A0E0B0E084839583A683B783AE
:1017C00027E131E0318320832FEF3FEF35872487F6
:1017D000ECEDF2E01382128284839583A683B783B3
:1017E00089E291E0918380830895EE0FFF1F0590B9
:1017F000F491E02D099481E090E0F8940C94000CB1
:04180000F894FFCF8A
:10180400FFFFFFFF00E100000000000000C1808135
:1018140000000000000000BF0112029802D501DAA6
:101824000433060F0600000000810554050C062849
:10183400054C053805290548617074696320536BAC
:10184400657463682030310062793A20545520442D
:10185400656C66742050692D546F756368204772F7
:101864006F75700056657273696F6E204E6F3A2003
:10187400302E3100426F6172642052657175697255
:1018840065643A2041726475696E6F20556E6F000D
:101894005072657373203120666F722045524D2C4F
:1018A400205072657373203220666F72204C52414F
:1018B4000045524D2053656C6563746564004C5259
:0E18C400412053656C6563746564000D0A0075
:00000001FF
